{
  "_format": "hh3-artifact-1",
  "contractName": "SOKODAO",
  "sourceName": "contracts/SOKODAO.sol",
  "abi": [
    {
      "anonymous": false,
      "inputs": [
        {
          "indexed": true,
          "internalType": "uint256",
          "name": "productId",
          "type": "uint256"
        }
      ],
      "name": "ProductDeactivated",
      "type": "event"
    },
    {
      "anonymous": false,
      "inputs": [
        {
          "indexed": true,
          "internalType": "uint256",
          "name": "productId",
          "type": "uint256"
        },
        {
          "indexed": true,
          "internalType": "address",
          "name": "seller",
          "type": "address"
        },
        {
          "indexed": false,
          "internalType": "string",
          "name": "name",
          "type": "string"
        },
        {
          "indexed": false,
          "internalType": "uint256",
          "name": "price",
          "type": "uint256"
        },
        {
          "indexed": false,
          "internalType": "uint256",
          "name": "stock",
          "type": "uint256"
        }
      ],
      "name": "ProductListed",
      "type": "event"
    },
    {
      "anonymous": false,
      "inputs": [
        {
          "indexed": true,
          "internalType": "uint256",
          "name": "productId",
          "type": "uint256"
        },
        {
          "indexed": false,
          "internalType": "uint256",
          "name": "price",
          "type": "uint256"
        },
        {
          "indexed": false,
          "internalType": "uint256",
          "name": "stock",
          "type": "uint256"
        },
        {
          "indexed": false,
          "internalType": "bool",
          "name": "isActive",
          "type": "bool"
        }
      ],
      "name": "ProductUpdated",
      "type": "event"
    },
    {
      "inputs": [
        {
          "internalType": "uint256",
          "name": "_productId",
          "type": "uint256"
        }
      ],
      "name": "getProduct",
      "outputs": [
        {
          "internalType": "uint256",
          "name": "id",
          "type": "uint256"
        },
        {
          "internalType": "address",
          "name": "seller",
          "type": "address"
        },
        {
          "internalType": "string",
          "name": "name",
          "type": "string"
        },
        {
          "internalType": "string",
          "name": "description",
          "type": "string"
        },
        {
          "internalType": "string",
          "name": "ipfsHash",
          "type": "string"
        },
        {
          "internalType": "uint256",
          "name": "price",
          "type": "uint256"
        },
        {
          "internalType": "uint256",
          "name": "stock",
          "type": "uint256"
        },
        {
          "internalType": "bool",
          "name": "isActive",
          "type": "bool"
        },
        {
          "internalType": "uint256",
          "name": "createdAt",
          "type": "uint256"
        }
      ],
      "stateMutability": "view",
      "type": "function"
    },
    {
      "inputs": [
        {
          "internalType": "address",
          "name": "_seller",
          "type": "address"
        }
      ],
      "name": "getSellerProducts",
      "outputs": [
        {
          "internalType": "uint256[]",
          "name": "",
          "type": "uint256[]"
        }
      ],
      "stateMutability": "view",
      "type": "function"
    },
    {
      "inputs": [],
      "name": "getTotalnumberofProducts",
      "outputs": [
        {
          "internalType": "uint256",
          "name": "",
          "type": "uint256"
        }
      ],
      "stateMutability": "view",
      "type": "function"
    },
    {
      "inputs": [
        {
          "internalType": "uint256",
          "name": "_productId",
          "type": "uint256"
        },
        {
          "internalType": "uint256",
          "name": "_quantity",
          "type": "uint256"
        }
      ],
      "name": "isProductAvailable",
      "outputs": [
        {
          "internalType": "bool",
          "name": "",
          "type": "bool"
        }
      ],
      "stateMutability": "view",
      "type": "function"
    },
    {
      "inputs": [
        {
          "internalType": "string",
          "name": "_name",
          "type": "string"
        },
        {
          "internalType": "string",
          "name": "_description",
          "type": "string"
        },
        {
          "internalType": "string",
          "name": "_ipfsHash",
          "type": "string"
        },
        {
          "internalType": "uint256",
          "name": "_price",
          "type": "uint256"
        },
        {
          "internalType": "uint256",
          "name": "_stock",
          "type": "uint256"
        }
      ],
      "name": "listProduct",
      "outputs": [
        {
          "internalType": "uint256",
          "name": "",
          "type": "uint256"
        }
      ],
      "stateMutability": "nonpayable",
      "type": "function"
    },
    {
      "inputs": [
        {
          "internalType": "uint256",
          "name": "",
          "type": "uint256"
        }
      ],
      "name": "products",
      "outputs": [
        {
          "internalType": "uint256",
          "name": "id",
          "type": "uint256"
        },
        {
          "internalType": "address",
          "name": "seller",
          "type": "address"
        },
        {
          "internalType": "string",
          "name": "name",
          "type": "string"
        },
        {
          "internalType": "string",
          "name": "description",
          "type": "string"
        },
        {
          "internalType": "string",
          "name": "ipfsHash",
          "type": "string"
        },
        {
          "internalType": "uint256",
          "name": "price",
          "type": "uint256"
        },
        {
          "internalType": "uint256",
          "name": "stock",
          "type": "uint256"
        },
        {
          "internalType": "bool",
          "name": "isActive",
          "type": "bool"
        },
        {
          "internalType": "uint256",
          "name": "createdAt",
          "type": "uint256"
        }
      ],
      "stateMutability": "view",
      "type": "function"
    },
    {
      "inputs": [
        {
          "internalType": "uint256",
          "name": "_productId",
          "type": "uint256"
        },
        {
          "internalType": "uint256",
          "name": "_quantity",
          "type": "uint256"
        }
      ],
      "name": "reduceStock",
      "outputs": [],
      "stateMutability": "nonpayable",
      "type": "function"
    },
    {
      "inputs": [
        {
          "internalType": "uint256",
          "name": "_productId",
          "type": "uint256"
        }
      ],
      "name": "toggleProductStatus",
      "outputs": [],
      "stateMutability": "nonpayable",
      "type": "function"
    },
    {
      "inputs": [
        {
          "internalType": "uint256",
          "name": "_productId",
          "type": "uint256"
        },
        {
          "internalType": "uint256",
          "name": "_price",
          "type": "uint256"
        },
        {
          "internalType": "uint256",
          "name": "_stock",
          "type": "uint256"
        }
      ],
      "name": "updateProduct",
      "outputs": [],
      "stateMutability": "nonpayable",
      "type": "function"
    }
  ],
  "bytecode": "0x6080604052348015600e575f5ffd5b5061135f8061001c5f395ff3fe608060405234801561000f575f5ffd5b5060043610610090575f3560e01c8063b4e7478111610063578063b4e747811461010a578063b9db15b41461011d578063c36ae76614610130578063e6a93e1614610143578063f85292ca14610163575f5ffd5b80630bd454e4146100945780637acc0b20146100bc5780638da0c83d146100e457806397c8db76146100f9575b5f5ffd5b6100a76100a2366004610ea0565b610176565b60405190151581526020015b60405180910390f35b6100cf6100ca366004610ec0565b6103e0565b6040516100b399989796959493929190610f05565b6100f76100f2366004610ea0565b6105ca565b005b5f545b6040519081526020016100b3565b6100fc61011836600461101e565b61066b565b6100cf61012b366004610ec0565b61090d565b6100f761013e366004610ec0565b610bb1565b6101566101513660046110bd565b610ced565b6040516100b391906110ea565b6100f761017136600461112c565b610d56565b5f825f8111801561018857505f548111155b6101ad5760405162461bcd60e51b81526004016101a490611155565b60405180910390fd5b5f84815260016020818152604080842081516101208101835281548152938101546001600160a01b031692840192909252600282018054918401916101f190611181565b80601f016020809104026020016040519081016040528092919081815260200182805461021d90611181565b80156102685780601f1061023f57610100808354040283529160200191610268565b820191905f5260205f20905b81548152906001019060200180831161024b57829003601f168201915b5050505050815260200160038201805461028190611181565b80601f01602080910402602001604051908101604052809291908181526020018280546102ad90611181565b80156102f85780601f106102cf576101008083540402835291602001916102f8565b820191905f5260205f20905b8154815290600101906020018083116102db57829003601f168201915b5050505050815260200160048201805461031190611181565b80601f016020809104026020016040519081016040528092919081815260200182805461033d90611181565b80156103885780601f1061035f57610100808354040283529160200191610388565b820191905f5260205f20905b81548152906001019060200180831161036b57829003601f168201915b50505091835250506005820154602082015260068201546040820152600782015460ff161515606082015260089091015460809091015260e081015190915080156103d75750838160c0015110155b95945050505050565b600160208190525f91825260409091208054918101546002820180546001600160a01b03909216929161041290611181565b80601f016020809104026020016040519081016040528092919081815260200182805461043e90611181565b80156104895780601f1061046057610100808354040283529160200191610489565b820191905f5260205f20905b81548152906001019060200180831161046c57829003601f168201915b50505050509080600301805461049e90611181565b80601f01602080910402602001604051908101604052809291908181526020018280546104ca90611181565b80156105155780601f106104ec57610100808354040283529160200191610515565b820191905f5260205f20905b8154815290600101906020018083116104f857829003601f168201915b50505050509080600401805461052a90611181565b80601f016020809104026020016040519081016040528092919081815260200182805461055690611181565b80156105a15780601f10610578576101008083540402835291602001916105a1565b820191905f5260205f20905b81548152906001019060200180831161058457829003601f168201915b5050506005840154600685015460078601546008909601549495919490935060ff909116915089565b815f811180156105db57505f548111155b6105f75760405162461bcd60e51b81526004016101a490611155565b5f838152600160205260409020600681015483111561064d5760405162461bcd60e51b8152602060048201526012602482015271496e73756666696369656e742073746f636b60701b60448201526064016101a4565b82816006015f82825461066091906111cd565b909155505050505050565b5f5f8651116106b35760405162461bcd60e51b81526020600482015260146024820152734e616d652063616e6e6f7420626520656d70747960601b60448201526064016101a4565b5f8451116106f85760405162461bcd60e51b815260206004820152601260248201527112541194c81a185cda081c995c5d5a5c995960721b60448201526064016101a4565b5f83116107475760405162461bcd60e51b815260206004820152601c60248201527f5072696365206d7573742062652067726561746572207468616e20300000000060448201526064016101a4565b5f82116107965760405162461bcd60e51b815260206004820152601c60248201527f53746f636b206d7573742062652067726561746572207468616e20300000000060448201526064016101a4565b5f805490806107a4836111e6565b909155505060408051610120810182525f80548083523360208085019182528486018c8152606086018c9052608086018b905260a086018a905260c08601899052600160e0870181905242610100880152938552908390529490922083518155915190820180546001600160a01b0319166001600160a01b039092169190911790559151909190600282019061083a908261124a565b506060820151600382019061084f908261124a565b5060808201516004820190610864908261124a565b5060a0820151600582015560c0820151600682015560e082015160078201805460ff191691151591909117905561010090910151600890910155335f818152600260209081526040808320835481546001810183559185529284200191909155905490517f6010ba315c3dab2ea560a3784db0edf2a07e33420bfd20da247c19536c08a6c2906108f9908a9088908890611305565b60405180910390a3505f5495945050505050565b5f5f60608060605f5f5f5f895f8111801561092957505f548111155b6109455760405162461bcd60e51b81526004016101a490611155565b5f8b815260016020818152604080842081516101208101835281548152938101546001600160a01b0316928401929092526002820180549184019161098990611181565b80601f01602080910402602001604051908101604052809291908181526020018280546109b590611181565b8015610a005780601f106109d757610100808354040283529160200191610a00565b820191905f5260205f20905b8154815290600101906020018083116109e357829003601f168201915b50505050508152602001600382018054610a1990611181565b80601f0160208091040260200160405190810160405280929190818152602001828054610a4590611181565b8015610a905780601f10610a6757610100808354040283529160200191610a90565b820191905f5260205f20905b815481529060010190602001808311610a7357829003601f168201915b50505050508152602001600482018054610aa990611181565b80601f0160208091040260200160405190810160405280929190818152602001828054610ad590611181565b8015610b205780601f10610af757610100808354040283529160200191610b20565b820191905f5260205f20905b815481529060010190602001808311610b0357829003601f168201915b505050505081526020016005820154815260200160068201548152602001600782015f9054906101000a900460ff161515151581526020016008820154815250509050805f015181602001518260400151836060015184608001518560a001518660c001518760e001518861010001519a509a509a509a509a509a509a509a509a5050509193959799909294969850565b805f81118015610bc257505f548111155b610bde5760405162461bcd60e51b81526004016101a490611155565b5f828152600160208190526040909120015482906001600160a01b03163314610c3d5760405162461bcd60e51b81526020600482015260116024820152702737ba10383937b23ab1ba1037bbb732b960791b60448201526064016101a4565b5f83815260016020526040902060078101805460ff19811660ff9182161590811790925516610c915760405184907f241c84b17626110b8c42e26f8f7de483066e7f266953509e01046f09e6fdd6cc905f90a25b60058101546006820154600783015460408051938452602084019290925260ff1615159082015284907f24833e9f5188ae0f7e72e30363b10145255676df1ab74b5137059e1b8e4cba669060600160405180910390a250505050565b6001600160a01b0381165f90815260026020908152604091829020805483518184028101840190945280845260609392830182828015610d4a57602002820191905f5260205f20905b815481526020019060010190808311610d36575b50505050509050919050565b825f81118015610d6757505f548111155b610d835760405162461bcd60e51b81526004016101a490611155565b5f848152600160208190526040909120015484906001600160a01b03163314610de25760405162461bcd60e51b81526020600482015260116024820152702737ba10383937b23ab1ba1037bbb732b960791b60448201526064016101a4565b5f8411610e315760405162461bcd60e51b815260206004820152601c60248201527f5072696365206d7573742062652067726561746572207468616e20300000000060448201526064016101a4565b5f8581526001602090815260409182902060058101879055600681018690556007810154835188815292830187905260ff16151582840152915187917f24833e9f5188ae0f7e72e30363b10145255676df1ab74b5137059e1b8e4cba66919081900360600190a2505050505050565b5f5f60408385031215610eb1575f5ffd5b50508035926020909101359150565b5f60208284031215610ed0575f5ffd5b5035919050565b5f81518084528060208401602086015e5f602082860101526020601f19601f83011685010191505092915050565b8981526001600160a01b0389166020820152610120604082018190525f90610f2f9083018a610ed7565b8281036060840152610f41818a610ed7565b90508281036080840152610f558189610ed7565b60a0840197909752505060c081019390935290151560e08301526101009091015295945050505050565b634e487b7160e01b5f52604160045260245ffd5b5f82601f830112610fa2575f5ffd5b813567ffffffffffffffff811115610fbc57610fbc610f7f565b604051601f8201601f19908116603f0116810167ffffffffffffffff81118282101715610feb57610feb610f7f565b604052818152838201602001851015611002575f5ffd5b816020850160208301375f918101602001919091529392505050565b5f5f5f5f5f60a08688031215611032575f5ffd5b853567ffffffffffffffff811115611048575f5ffd5b61105488828901610f93565b955050602086013567ffffffffffffffff811115611070575f5ffd5b61107c88828901610f93565b945050604086013567ffffffffffffffff811115611098575f5ffd5b6110a488828901610f93565b9598949750949560608101359550608001359392505050565b5f602082840312156110cd575f5ffd5b81356001600160a01b03811681146110e3575f5ffd5b9392505050565b602080825282518282018190525f918401906040840190835b81811015611121578351835260209384019390920191600101611103565b509095945050505050565b5f5f5f6060848603121561113e575f5ffd5b505081359360208301359350604090920135919050565b602080825260129082015271125b9d985b1a59081c1c9bd91d58dd08125160721b604082015260600190565b600181811c9082168061119557607f821691505b6020821081036111b357634e487b7160e01b5f52602260045260245ffd5b50919050565b634e487b7160e01b5f52601160045260245ffd5b818103818111156111e0576111e06111b9565b92915050565b5f600182016111f7576111f76111b9565b5060010190565b601f82111561124557805f5260205f20601f840160051c810160208510156112235750805b601f840160051c820191505b81811015611242575f815560010161122f565b50505b505050565b815167ffffffffffffffff81111561126457611264610f7f565b611278816112728454611181565b846111fe565b6020601f8211600181146112aa575f83156112935750848201515b5f19600385901b1c1916600184901b178455611242565b5f84815260208120601f198516915b828110156112d957878501518255602094850194600190920191016112b9565b50848210156112f657868401515f19600387901b60f8161c191681555b50505050600190811b01905550565b606081525f6113176060830186610ed7565b6020830194909452506040015291905056fea264697066735822122065d96d1d2038b4fe7cf7409bbd27663b1d3f622c19ac2db0aa4d29aa338ec5e964736f6c634300081c0033",
  "linkReferences": {},
  "deployedLinkReferences": {},
  "immutableReferences": {},
  "inputSourceName": "project/contracts/SOKODAO.sol",
  "buildInfoId": "solc-0_8_28-8410cf325889d04bee75f9a04a81d58ee1444070"
}